:0400000081EF00F09C
:1000080040004000400040004000400040004000E8
:1000180040004000400040004000400040004000D8
:1000280040004000400040004000400040004000C8
:1000380040004000400040004000400040004000B8
:1000480040004000400040004000400040004000A8
:100058004000400040004000400040004000400098
:100068004000400040004000400040004000400088
:100078004000400040004000400040004000400078
:100088004000400040004000400040004000400068
:100098004000400040004000400040004000400058
:1000A8004000400040004000400040004000400048
:1000B8004000400040004000400040004000400038
:1000C8004000400040004000400040004000400028
:1000D800EA0140004000400040004000400040006D
:1000E8004000400040004000400040004000400008
:1000F8004000400040004000FF00ECEF03F098EFA4
:1001080001F0000E0B6E000E0A6E9EEF00F0C38C1D
:10011800080E086E440EE82EFED7082EFCD700D035
:10012800C39CD00E086ECA0EE82EFED7082EFCD748
:100138000A4A0B2A0BBEAAEF00F00B5009E1280E61
:100148000A5CD8A0AAEF00F0ACEF00F08BEF00F04B
:100158008A0E096EFD0E086E4F0EE82EFED7082E89
:10016800FCD7092EFAD700F0000E0D6E000E0C6EAB
:10017800D1EF00F0C38C1B0E086E7D0EE82EFED763
:10018800082EFCD700F0C39CD00E086ECA0EE82ECD
:10019800FED7082EFCD70C4A0D2A0DBEDDEF00F065
:1001A8000D5009E1280E0C5CD8A0DDEF00F0DFEF60
:1001B80000F0BEEF00F0B2EF01F0000E0F6E000E7F
:1001C8000E6EFAEF00F0C38A080E086E440EE82E91
:1001D800FED7082EFCD700D0C39AD00E086ECA0EE0
:1001E800E82EFED7082EFCD70E4A0F2A0FBE06EFC0
:1001F80001F00F5009E1280E0E5CD8A006EF01F0BF
:1002080008EF01F0E7EF00F0620E096E670E086E66
:10021800CE0EE82EFED7082EFCD7092EFAD7000EF0
:10022800116E000E106E2CEF01F0C38A1B0E086EC3
:100238007D0EE82EFED7082EFCD700F0C39AD00E0C
:10024800086ECA0EE82EFED7082EFCD7104A112ACF
:1002580011BE38EF01F0115009E1280E105CD8A04A
:1002680038EF01F03AEF01F019EF01F0B2EF01F0C9
:10027800000E136E000E126E55EF01F0C388080EC3
:10028800086E440EE82EFED7082EFCD700D0C3987F
:10029800D00E086ECA0EE82EFED7082EFCD7124ADA
:1002A800132A13BE61EF01F0135009E1280E125C06
:1002B800D8A061EF01F063EF01F042EF01F0290EE1
:1002C800096E960E086E7F0EE82EFED7082EFCD714
:1002D800092EFAD700F0000E156E000E146E88EF86
:1002E80001F0C3881B0E086E7D0EE82EFED7082E7F
:1002F800FCD700F0C398D00E086ECA0EE82EFED7C1
:10030800082EFCD7144A152A15BE94EF01F0155093
:1003180009E1280E145CD8A094EF01F096EF01F0E3
:1003280075EF01F0B2EF01F006C508F507C509F54C
:100338000950000AD8B4A3EF01F0B2EF01F0085059
:10034800010AD8B43CEF01F0030AD8B4E1EF00F099
:10035800010AD8B485EF00F0B2EF01F01200C2EF45
:1003680002F0000E156E000E146EC1821B0E086E90
:100378007D0EE82EFED7082EFCD700F0C192D00ED5
:10038800086ECA0EE82EFED7082EFCD7144A152A86
:1003980015BED8EF01F0155009E1320E145CD8A053
:1003A800D8EF01F0DAEF01F0B9EF01F08A0E096E2B
:1003B800FD0E086E4F0EE82EFED7082EFCD7092E2C
:1003C800FAD700F0000E0B6E000E0A6EFFEF01F078
:1003D800C182070E086E3A0EE82EFED7082EFCD70B
:1003E80000D0C192D00E086ECA0EE82EFED7082E95
:1003F800FCD70A4A0B2A0BBE0BEF02F00B5009E19F
:10040800280E0A5CD8A00BEF02F00DEF02F0ECEF1B
:1004180001F0DCEF02F0000E0D6E000E0C6E27EFFF
:1004280002F0C1841C0E086E020EE82EFED7082EBC
:10043800FCD7C194D00E086ECA0EE82EFED7082E3F
:10044800FCD70C4A0D2A0DBE33EF02F00D5009E11E
:10045800280E0C5CD8A033EF02F035EF02F015EF50
:1004680002F0620E096E670E086ECE0EE82EFED7F9
:10047800082EFCD7092EFAD7000E0F6E000E0E6E4E
:1004880058EF02F0C184070E086EC00EE82EFED7A2
:10049800082EFCD7C194D00E086ECA0EE82EFED7DF
:1004A800082EFCD70E4A0F2A0FBE64EF02F00F5039
:1004B80009E1280E0E5CD8A064EF02F066EF02F0A6
:1004C80046EF02F0DCEF02F0000E116E000E106E27
:1004D80080EF02F0C1861C0E086E020EE82EFED7D1
:1004E800082EFCD7C196D00E086ECA0EE82EFED78D
:1004F800082EFCD7104A112A11BE8CEF02F01150B9
:1005080009E1280E105CD8A08CEF02F08EEF02F003
:100518006EEF02F0290E096E960E086E7F0EE82E19
:10052800FED7082EFCD7092EFAD700F0000E136E5E
:10053800000E126EB2EF02F0C186070E086EC00EF2
:10054800E82EFED7082EFCD7C196D00E086ECA0E2C
:10055800E82EFED7082EFCD7124A132A13BEBEEF88
:1005680002F0135009E1280E125CD8A0BEEF02F089
:10057800C0EF02F0A0EF02F0DCEF02F006C508F5CC
:1005880007C509F50950000AD8B4CDEF02F0DCEF31
:1005980002F00850010AD8B468EF02F0030AD8B490
:1005A8000FEF02F0010AD8B4B5EF01F0DCEF02F06A
:1005B80012000001B151F00B0609B16F000E0401E1
:1005C800186F000E286F000E006F000E106F000EDF
:1005D800206F000EC16E000EC36E000EBE6E000EC0
:1005E800C06E000EC26E000EC96E000ECB6E000EFD
:1005F800C66ECA80030EC86E2181030E116F000EED
:10060800286FCB90CB822C0E0201296F290E7A6FAE
:10061800F79FF78BF789F00EF717F88F000EFB6F2F
:10062800CF0EFA6FBB90BB90AB80D68E410E1818D8
:10063800D8A421EF03F023EF03F02BEF03F0000E13
:10064800076E030E066EB3EC01F080EF03F0420E66
:100658001818D8A432EF03F034EF03F03CEF03F09E
:10066800000E076E020E066EB3EC01F080EF03F089
:10067800430E1818D8A443EF03F045EF03F04DEFED
:1006880003F0000E076E010E066EB3EC01F080EF6A
:1006980003F0440E1818D8A454EF03F056EF03F0F3
:1006A8005EEF03F0000E076E030E066E83EC00F09B
:1006B80080EF03F0450E1818D8A465EF03F067EF34
:1006C80003F06FEF03F0000E076E020E066E83EC68
:1006D80000F080EF03F0460E1818D8A476EF03F068
:1006E80078EF03F080EF03F0000E076E010E066E40
:1006F80083EC00F080EF03F01A0EE82EFED700D04E
:100708001AEF03F081EF00F0000E036E000E026E88
:10071800BE8C1B0E016E3A0EE82EFED7012EFCD7BA
:1007280000D0BE9CD00E016ECA0EE82EFED7012E58
:10073800FCD7024A032A03BEABEF03F0035009E1DA
:100748001E0E025CD8A0ABEF03F0ADEF03F08CEF08
:1007580003F0000E056E000E046EBE8C070E016ECF
:100768003A0EE82EFED7012EFCD700D0BE9CD00E44
:10077800016ECA0EE82EFED7012EFCD7044A052AC0
:1007880005BED0EF03F0055009E10A0E045CD8A0BD
:0E079800D0EF03F0D2EF03F0B1EF03F0120048
:1007A8000201FEAFDAEF03F0DCEF03F0D4EF03F061
:1007B800EDC218F5520E1818D8A4E5EF03F0E7EFCC
:1007C80003F0E9EF03F088EC03F018C5EFF211002D
:1007D800060EF66E080EF76E000EF86E0900F5C4E8
:1007E80016F50900F5C417F5186A0401080E5D6FBF
:1007F800000E5E6F000E5F6F0001DDEF02F0280053
:020000040030CA
:080000008CFFFDFF9FFFFFFFD5
:01000900FFF7
:00000001FF
